:100000000C942A000C9447000C9447000C94470071
:100010000C94AA060C9447000C9447000C944700DB
:100020000C9447000C9447000C94E2050C94470094
:100030000C9447000C9447000C9447000C94470024
:100040000C9447000C9447000C9447000C94470014
:100050000C94470011241FBECFE5D8E0DEBFCDBF12
:1000600010E0A0E6B0E0E8E4FEE002C005900D92EA
:10007000AC36B107D9F720E0ACE6B0E001C01D9284
:10008000AC37B207E1F70E9449000C9422070C94A8
:100090000000CF93DF931F92CDB7DEB70E94F40626
:1000A0000E9477008FEF898310E0CE0101960E94B5
:1000B000C900111109C00E94B2028F3F09F411E07A
:1000C00089E60E941C07F1CF89818150893020F098
:1000D000ECCF84E60E941C078981805D0E94390371
:1000E0008F3FB9F7E2CF8EEF80936000089541E033
:1000F00065E082E00E94D903811139C041E066E0E9
:1001000082E00E94D903811134C041E067E082E0BF
:100110000E94D90381112FC042E062E082E00E9478
:10012000D90381112AC042E063E082E00E94D90332
:10013000811125C042E064E082E00E94D903811170
:1001400020C041E065E082E00E94CF0481111BC025
:1001500041E066E082E00E94CF04811116C041E0D8
:1001600067E082E00E94CF04811111C0089581E60A
:10017000089581E6089581E6089581E6089581E66F
:10018000089581E6089581E6089581E6089581E65F
:100190000895CF92DF92EF92FF920F931F93CF9328
:1001A000DF93CDB7DEB72A970FB6F894DEBF0FBE48
:1001B000CDBF7C0199E0E2E6F0E0DE01129601900D
:1001C0000D929A95E1F7E114F10409F4EFC08091E2
:1001D00060008E3F09F4D7C0D8F58D3F09F488C080
:1001E000E7C040E06F2D82E00E94CF04811102E65B
:1001F00012E023C0AE014F5F5F4F612F82E00E948B
:100200004905811102E68981811116C0812F90E094
:1002100002972F2D30E025503109AC01440F551FB6
:10022000840F951F41E050E04C0F5D1F840F951F18
:10023000FC01E20FF31FC1801F5F1530D8F241E0CF
:100240006F2D82E00E94CF04811102E6F39405C075
:100250000F2EF5E0FF2EF02D00E057E05F1508F0BF
:10026000C0CF8FEFC81609F4A6C08DEF8093600051
:1002700063E770E08AE090E00E94C50581119AC0B2
:100280009AC040E06D2D82E00E94CF04811102E609
:1002900012E023C0AE014F5F5F4F612F82E00E94EA
:1002A0004905811102E68981811116C0812F90E0F4
:1002B00002972D2D30E025503109AC01440F551F18
:1002C000840F951FE1E0F0E0EC0FFD1F8E0F9F1FE4
:1002D000FC01E20FF31FC1801F5F1530D8F241E02F
:1002E0006D2D82E00E94CF04811102E6D39405C0F7
:1002F0000F2EF5E0DF2EF02D00E0F7E0FD1508F001
:10030000C0CF809160008E3F19F4F701C08253C0C6
:100310008DEFF70180834FC040E06D2D82E00E9499
:10032000CF04811102E612E023C0AE014F5F5F4FA0
:10033000612F82E00E944905811102E689818111C5
:1003400016C0212F30E0225031098D2D90E0059705
:10035000A901440F551F240F351F41E050E04C0FF9
:100360005D1F240F351FF901E80FF91FC1801F5FC2
:100370001530D8F241E06D2D82E00E94CF0481114A
:1003800002E6D39407C00F2EF5E0DF2EF02DCC242B
:10039000CA9400E057E05D1508F0BECF8FEFF7017B
:1003A0008083C81208C08093600005C002E603C0C5
:1003B00000E001C002E6802F2A960FB6F894DEBF57
:1003C0000FBECDBFDF91CF911F910F91FF90EF90A6
:1003D000DF90CF90089580916D00813079F018F012
:1003E0008F3FC1F0089581E080936D00809361009C
:1003F00040E063E080E00E94CF0408958FEF809397
:100400006D0081E08093610040E063E080E00E9445
:10041000CF04089510926D0081E0809361000E94E6
:100420006B060895CF93C82F80916D00813009F439
:1004300047C020F08F3F09F482C08FC0C4FB44271F
:1004400040F964E080E00E94CF04811106C0C5FB42
:10045000442740F965E00E94CF04811106C0C6FB25
:10046000442740F966E00E94CF04811107C04C2F59
:10047000441F4427441F67E00E94CF04811104C039
:1004800040E061E00E94CF04811104C040E062E0DE
:100490000E94CF04811104C041E063E00E94CF04B8
:1004A00090916100992309F45BC0811159C06BEEF2
:1004B00071E083E090E00E948D061092610050C0D0
:1004C0004C2F417064E080E00E94CF04811106C08F
:1004D000C1FB442740F965E00E94CF04811106C0AA
:1004E000C2FB442740F966E00E94CF04811106C098
:1004F000C3FB442740F967E00E94CF04811104C088
:1005000040E061E00E94CF04811104C040E062E05D
:100510000E94CF04811104C041E063E00E94CF0437
:10052000909161009923E1F081111AC06BEE71E0A6
:1005300083E090E00E948D061092610011C08091CE
:100540006100882361F06BEE71E081E090E00E9431
:100550008D06109261008FEF03C080E001C080E043
:10056000CF910895CF930E942C0641E061E080E096
:100570000E94D903811102C0C0E001C0C1E741E07F
:1005800062E080E00E94D9038111C1E741E063E0AD
:1005900080E00E94D9038111C1E741E064E080E07E
:1005A0000E94D9038111C1E741E065E080E00E942B
:1005B000D9038111C1E741E066E080E00E94D903E0
:1005C0008111C1E741E067E080E00E94D903811119
:1005D000C1E780916C00833049F120F4813091F0C3
:1005E00038F01AC08530B1F158F18F3FE1F13EC0CB
:1005F00083E30E9412028F3FC9F581E080936C0073
:10060000C1E734C082E30E9412028F3F79F582E095
:1006100080936C00C1E72AC088E20E9412028F3FDB
:1006200029F583E080936C00C1E720C08CE00E9434
:1006300012028F3FD9F484E080936C00C1E716C0AA
:1006400086E00E9412028F3F89F485E080936C005F
:10065000C1E70CC081E00E9412028F3F39F4809301
:100660006C00C1E703C010926C00CFEF8C2FCF91CC
:100670000895CF93C82F80916D00813009F447C051
:1006800020F08F3F09F482C08FC0C4FB442740F99B
:1006900064E080E00E94CF04811106C0C5FB4427BE
:1006A00040F965E00E94CF04811106C0C6FB4427D3
:1006B00040F966E00E94CF04811107C04C2F441F0F
:1006C0004427441F67E00E94CF04811104C041E029
:1006D00061E00E94CF04811104C040E062E00E940A
:1006E000CF04811104C041E063E00E94CF049091E7
:1006F0006100992309F45BC0811159C06BEE71E070
:1007000083E090E00E948D061092610050C04C2F53
:10071000417064E080E00E94CF04811106C0C1FBFB
:10072000442740F965E00E94CF04811106C0C2FB56
:10073000442740F966E00E94CF04811106C0C3FB44
:10074000442740F967E00E94CF04811104C041E0D2
:1007500061E00E94CF04811104C040E062E00E9489
:10076000CF04811104C041E063E00E94CF04909166
:1007700061009923E1F081111AC06BEE71E083E012
:1007800090E00E948D061092610011C0809161007E
:10079000882361F06BEE71E081E090E00E948D06AD
:1007A000109261008FEF03C080E001C080E0CF9124
:1007B0000895683008F0E7C0813009F43FC038F090
:1007C000823009F472C0833009F4A6C0DEC0413023
:1007D00049F118F0423091F0DAC02AB381E090E09C
:1007E00002C0880F991F6A95E2F78095922F98238F
:1007F0009ABB9BB389238BBB80E0089580B78B7F26
:1008000080BF2AB381E090E002C0880F991F6A95EB
:10081000E2F7982F909592239ABB9BB3892B8BBBC1
:1008200080E008952AB381E090E002C0880F991F0C
:100830006A95E2F7822B8ABB80E00895413049F146
:1008400018F0423091F0A5C027B381E090E002C0DB
:10085000880F991F6A95E2F78095922F982397BB8E
:1008600098B3892388BB80E0089580B78B7F80BFD1
:1008700027B381E090E002C0880F991F6A95E2F7E4
:10088000982F9095922397BB98B3892B88BB80E0D3
:10089000089527B381E090E002C0880F991F6A9500
:1008A000E2F7822B87BB80E00895413049F118F0D0
:1008B000423091F070C024B381E090E002C0880F14
:1008C000991F6A95E2F78095922F982394BB95B370
:1008D000892385BB80E0089580B78B7F80BF24B3D8
:1008E00081E090E002C0880F991F6A95E2F7982F87
:1008F0009095922394BB95B3892B85BB80E0089596
:1009000024B381E090E002C0880F991F6A95E2F756
:10091000822B84BB80E00895413049F118F04230C9
:1009200091F03BC021B381E090E002C0880F991F95
:100930006A95E2F78095922F982391BB9BB3892308
:100940008BBB80E0089580B78B7F80BF21B381E0AF
:1009500090E002C0880F991F6A95E2F7982F909552
:10096000922391BB92B3892B82BB80E0089521B37F
:1009700081E090E002C0880F991F6A95E2F7822B10
:1009800081BB80E0089582E1089582E1089582E1CB
:10099000089582E1089582E1089582E10895683022
:1009A00008F06BC0813001F130F08230B1F183305A
:1009B00009F44BC064C0423008F063C05BB321E06F
:1009C00030E0062E02C0220F331F0A94E2F7842F74
:1009D00090E002C0880F991F6A95E2F720952523C1
:1009E000822B8BBB80E00895423008F04CC058B396
:1009F00021E030E0062E02C0220F331F0A94E2F7F6
:100A0000842F90E002C0880F991F6A95E2F7209525
:100A10002523822B88BB80E008954230B0F555B382
:100A200021E030E0062E02C0220F331F0A94E2F7C5
:100A3000842F90E002C0880F991F6A95E2F72095F5
:100A40002523822B85BB80E00895423000F552B308
:100A500021E030E0062E02C0220F331F0A94E2F795
:100A6000842F90E002C0880F991F6A95E2F72095C5
:100A70002523822B82BB80E0089584E1089584E1E0
:100A8000089584E1089584E1089584E1089584E15E
:100A900008956830C0F5813091F028F08230D9F0A7
:100AA000833029F132C089B390E002C095958795D3
:100AB0006A95E2F78170FA01808380E0089586B339
:100AC00090E002C0959587956A95E2F78170FA01EA
:100AD000808380E0089583B390E002C09595879568
:100AE0006A95E2F78170FA01808380E0089580B30F
:100AF00090E002C0959587956A95E2F78170FA01BA
:100B0000808380E0089586E1089586E1089583B7A3
:100B10008F7B83BF83B7886083BF8FB780688FBFA9
:100B200089B7826089BF03B606FC0BC003B603FE1B
:100B30000AC00FB607FE09C009B601FC08C081E46F
:100B4000089581E4089581E4089581E4089580E0A2
:100B500008958DE78CBF83B7816083BF83B78260C0
:100B600083BF83B78B7F83BF03B600FE08C003B685
:100B700001FE07C003B602FE06C082E4089582E4C7
:100B8000089582E4089580E008959C01909170009A
:100B90009130A1F081E08093700030937400209335
:100BA00073006115710561F070936F0060936E00C2
:100BB0000E9487050E94A90580E0089584E40895B5
:100BC00084E408951F920F920FB60F9211242F9371
:100BD0003F934F935F936F937F938F939F93AF93C5
:100BE000BF93EF93FF9380917100909172000196F3
:100BF0009093720080937100209171003091720087
:100C0000809173009091740028173907A1F48091A6
:100C10006E0090916F00892B71F01092720010920B
:100C2000710089B78D7F89BF10927000E0916E00CE
:100C3000F0916F000995FF91EF91BF91AF919F9156
:100C40008F917F916F915F914F913F912F910F9075
:100C50000FBE0F901F90189585B58F7B85BD85B50C
:100C6000886085BD8FB780688FBF89B7806889BF6E
:100C700014BC05B406FC0BC005B403FE0AC00FB6D5
:100C800007FE09C009B607FC08C081EF089581EF8F
:100C9000089581EF089581EF089580E008958DE72C
:100CA00083BD85B58E7F85BD85B58D7F85BD85B5B9
:100CB000846085BD03B600FC08C003B601FC07C014
:100CC00003B602FC06C082EF089582EF089582EF1A
:100CD000089580E0089585B58E7F85BD85B58D7FAB
:100CE00085BD85B58B7F85BD89B78F7789BF03B6F5
:100CF00000FC0BC003B601FC0AC003B602FC09C02D
:100D000009B607FE08C082EF089582EF089582EFCA
:100D1000089582EF089580E008959C0190917700F6
:100D20009130A1F081E08093770030937B00209395
:100D30007A006115710561F070937600609375001B
:100D40000E942C060E944F0680E0089584EF0895CB
:100D500084EF08951F920F920FB60F9211242F93D4
:100D60003F934F935F936F937F938F939F93AF9333
:100D7000BF93EF93FF938091780090917900019653
:100D800090937900809378002091780030917900D9
:100D900080917A0090917B0028173907A1F4809107
:100DA000750090917600892B71F010927900109265
:100DB000780089B78F7789BF10927700E09175002E
:100DC000F09176000995FF91EF91BF91AF919F91BE
:100DD0008F917F916F915F914F913F912F910F90E4
:100DE0000FBE0F901F9018958AB180618AB9549BED
:100DF00002C080E001C081E89AB198609AB9539B23
:100E000081E890B5906890BD579B81E890B59F7B35
:100E100090BD569981E890B590BD90B5977F90BDF3
:100E200090B5966090BD90B59F7790BD579981E839
:100E300010BC93E399B908955D9BFECF8CB98CB13A
:080E400082E80895F894FFCF49
:0C0E4800FF010102030405060708090071
:00000001FF
